:100000000C9490030C94AD030C94AD030C94F12864
:100010000C94FA120C94AD030C94AD030C94AD0344
:100020000C94AD030C948D150C94AD030C94BA167E
:100030000C94AD030C94AD030C94AD030C94AD0380
:100040000C94AD030C94AD030C94A8120C946312A1
:100050000C94AD030C94AD030C94AD030C94AD0360
:100060000C94AD030C94AD032A1B2A1B2A1B411BC5
:10007000561B5F1B681B711B7A1B911B9D1BA61BCC
:10008000AF1BB81BCA1BDE1BF01B061C181C211C57
:100090002A1C331C3E1C084AD73B3BCE016E84BC55
:1000A000BFFDC12F3D6C74319ABD56833DDA3D00D2
:1000B000C77F11BED9E4BB4C3E916BAAAABE00001B
:1000C00000803F05A84CCDB2D44EB93836A9020CF9
:1000D00050B9918688083CA6AAAA2ABE00000080D2
:1000E0003F3E0D0A002C0057506F733A002C002C35
:1000F0004D506F733A003C436865636B003C416C44
:1001000061726D003C486F6D65003C486F6C640027
:100110003C52756E003C5175657565003C49646CD8
:1001200065000D0A003D00244E005D0D0A002046CA
:1001300000205400204D3800204D3900204D35005E
:10014000204D3400204D3300204D3200204D310031
:10015000204D3000204739340020473933002047F4
:1001600039310020473930002047323100204732F2
:1001700030002047313900204731380020473137DF
:10018000002047005B473830005B4733005B473255
:10019000005B4731005B4730005D0D0A002C005BBF
:1001A0004739323A005D0D0A002C0033303A0032F4
:1001B000383A0035393A0035383A0035373A0035A3
:1001C000363A0035353A0035343A005B470020288E
:1001D000686F6D696E672070756C6C2D6F66662C2C
:1001E000206D6D290D0A002028686F6D696E6720EB
:1001F0006465626F756E63652C206D736563290D90
:100200000A2432323D002028686F6D696E672073C2
:1002100065656B2C206D6D2F6D696E290D0A24327A
:10022000313D002028686F6D696E672066656564E2
:100230002C206D6D2F6D696E290D0A2432303D0022
:10024000290D0A2431393D002028686F6D696E67D9
:100250002064697220696E76657274206D61736BBB
:100260002C20696E743A002028686F6D696E6720D3
:100270006379636C652C20626F6F6C290D0A2431E1
:10028000383D00202868617264206C696D69747360
:100290002C20626F6F6C290D0A2431373D00202815
:1002A000696E76657274207374657020656E616224
:1002B0006C652C20626F6F6C290D0A2431363D006D
:1002C00020286175746F2073746172742C20626FC2
:1002D0006F6C290D0A2431353D0020287265706F3E
:1002E000727420696E636865732C20626F6F6C296D
:1002F0000D0A2431343D0020286E2D646563696D3C
:10030000616C732C20696E74290D0A2431333D0011
:1003100020286E2D61726320636F72726563746949
:100320006F6E2C20696E74290D0A2431323D002035
:10033000286172632C206D6D2F7365676D656E7417
:10034000290D0A2431313D0020286A756E637469D5
:100350006F6E20646576696174696F6E2C206D6DB7
:10036000290D0A2431303D002028616363656C65E6
:10037000726174696F6E2C206D6D2F7365635E32D0
:10038000290D0A24393D00202873746570206964A2
:100390006C652064656C61792C206D736563290D33
:1003A0000A24383D00290D0A24373D0020287374A3
:1003B000657020706F727420696E76657274206D3E
:1003C00061736B2C20696E743A0020286465666145
:1003D000756C74207365656B2C206D6D2F6D696E67
:1003E000290D0A24363D00202864656661756C7409
:1003F00020666565642C206D6D2F6D696E290D0A70
:1004000024353D002028737465702070756C736509
:100410002C2075736563290D0A24343D0020287A49
:100420002C20737465702F6D6D290D0A24333D00E7
:100430002028792C20737465702F6D6D290D0A2486
:10044000323D002028782C20737465702F6D6D2943
:100450000D0A24313D0024303D00242420287669F3
:100460006577204772626C2073657474696E677378
:10047000290D0A24232028766965772023207061BE
:1004800072616D6574657273290D0A2447202876A0
:100490006965772070617273657220737461746529
:1004A000290D0A244E2028766965772073746172BD
:1004B00074757020626C6F636B73290D0A24783D2C
:1004C00076616C7565202873617665204772626C71
:1004D0002073657474696E67290D0A244E783D6C2B
:1004E000696E652028736176652073746172747516
:1004F0007020626C6F636B290D0A244320286368A7
:1005000065636B2067636F6465206D6F6465290D9B
:100510000A245820286B696C6C20616C61726D2014
:100520006C6F636B290D0A2448202872756E206851
:100530006F6D696E67206379636C65290D0A7E2093
:10054000286379636C65207374617274290D0A21C4
:1005500020286665656420686F6C64290D0A3F2059
:100560002863757272656E74207374617475732973
:100570000D0A6374726C2D7820287265736574207F
:100580004772626C290D0A000D0A4772626C2030B6
:100590002E3863205B27242720666F722068656CE5
:1005A000705D0D0A005D0D0A0044697361626C653F
:1005B0006400456E61626C65640043617574696FC7
:1005C0006E3A20556E6C6F636B6564002724482774
:1005D0007C2724582720746F20756E6C6F636B0026
:1005E000526573657420746F20636F6E74696E75E5
:1005F00065005B002E204D506F733F0D0A00416275
:100600006F727420647572696E67206379636C65BC
:100610000048617264206C696D697400414C4152FC
:100620004D3A20000D0A004C696E65206F766572A8
:10063000666C6F7700416C61726D206C6F636B004C
:1006400042757379206F7220717565756564004518
:100650004550524F4D2072656164206661696C2E71
:10066000205573696E672064656661756C747300EC
:1006700056616C7565203C203320757365630056A8
:10068000616C7565203C20302E30005365747469B0
:100690006E672064697361626C656400496E76619F
:1006A0006C69642073746174656D656E74004D6F60
:1006B00064616C2067726F75702076696F6C61740D
:1006C000696F6E00496E76616C696420726164695D
:1006D000757300556E737570706F727465642073F6
:1006E000746174656D656E740045787065637465DA
:1006F0006420636F6D6D616E64206C6574746572E7
:1007000000426164206E756D62657220666F726D65
:100710006174006572726F723A20006F6B0D0A008F
:1007200011241FBECFEFD8E0DEBFCDBF11E0A0E0A7
:10073000B1E0E8E3F8E602C005900D92A030B10701
:10074000D9F716E0A0E0B1E001C01D92A73FB107C4
:10075000E1F70E94AF030C941A340C9400000F933D
:100760001F930E9430120E94461D0E948C1678949E
:1007700080E1ECEBF5E0DF011D928A95E9F781E07D
:100780008093BC058093BD0506E011E08091BC0517
:10079000882389F10E94A3120E941F250E94C6117E
:1007A0000E9452150E94F4110E9418120E94752690
:1007B0000E945F160E9438261092BC051092BE055A
:1007C0008091E406982F81FF02C01093CB058091A1
:1007D000BD05813021F494FF02C00093BD058091D6
:1007E000BD05863021F482E00E94982A04C0109250
:1007F000BD050E9497130E9436130E940115C6CFB3
:100800008091BE0584FD15C08091BE0580618093F6
:10081000BE050E94FA110E941D128091BD058350F1
:10082000833038F48091BE0580628093BE050E94BB
:1008300073160895EF92FF920F931F93CF93DF9358
:100840007B018C0120E030E040EA51E40E94EC3270
:100850000E94F4300E948B30EB010E940225C801F7
:10086000B70120E030E04AE754E40E94EC327B011B
:100870008C0182E390E0C89FB001C99F700DD89FA2
:10088000700D112480E090E00E94B7309B01AC0114
:10089000C801B7010E943D2F0E94F4300E948B30A6
:1008A000DC01CB010E94EE2500E911E00EC00E94A0
:1008B00036138091BC05882351F484EF91E0F80150
:1008C0003197F1F70197D9F72197209781F7DF91B9
:1008D000CF911F910F91FF90EF9008954F925F92EB
:1008E0006F927F928F92AF92BF92CF92DF92EF92F0
:1008F000FF920F931F93DF93CF9300D000D0CDB71B
:10090000DEB72B013C0129833A834B835C838091C2
:10091000BD058730F9F00E9436138091BC0588230D
:10092000C9F40E94CC1D8823B1F7C301B20129810B
:100930003A814B815C810E945D218091BD058823B5
:1009400019F482E08093BD058091CB05882311F0D6
:100950000E940A160F900F900F900F90CF91DF9189
:100960001F910F91FF90EF90DF90CF90BF90AF90CD
:100970008F907F906F905F904F9008952F923F924D
:100980004F925F926F927F928F929F92AF92BF929F
:10099000CF92DF92EF92FF920F931F9385E08093A7
:1009A000BD0580916B00817F80936B000E94A4281D
:1009B0000E9436138091BC05882309F064C08CE046
:1009C000EFEBF5E0DF011D928A95E9F70E943826EA
:1009D0001092BD058091E50685FD02C06FEF01C054
:1009E00061E086FD03C0DD24DA9402C0DD24D394E7
:1009F000E090F006F090F1060091F2061091F306F7
:100A0000772767FD7095872F972F0E94B930A8012F
:100A100097010E94EC321B012C016D2D772767FD99
:100A20007095872F972F0E94B930A80197010E94D7
:100A3000EC323B014C01C801B70120E030E040E05E
:100A400050E00E94EC327B018C01A090EA06B0904D
:100A5000EB06C090EC06D090ED06C201B101A401F6
:100A6000930188240E946E040E940A160E940225A7
:100A70000E9438268091E40683FF05C080916B00B8
:100A80008E6080936B001F910F91FF90EF90DF902D
:100A9000CF90BF90AF909F908F907F906F905F901E
:100AA0004F903F902F9008952F923F924F925F92D8
:100AB0006F927F928F929F92AF92BF92CF92DF926E
:100AC000EF92FF920F931F93DF93CF93CDB7DEB7D3
:100AD000CE54D0400FB6F894DEBF0FBECDBF3C0160
:100AE0007EAF6DAF21965FAF4EAF219722962FAFAD
:100AF000229723960FAF23972496EFAE249728963C
:100B0000ACAEBDAECEAEDFAE289729968FAE29979C
:100B1000E22EFF24EE0CFF1CEE0CFF1C4E0D5F1DA1
:100B20005CAF4BAFDA012D903D904D905C90FC0195
:100B3000EE0DFF1DC201B10120813181428153813F
:100B40000E943E2F69AB7AAB8BAB9CAB10E0000FE1
:100B5000111F000F111F2196EEADFFAD2197E00F81
:100B6000F11FFAAFE9AFA080B180C280D380F3015A
:100B7000E00FF11FC601B50120813181428153810F
:100B80000E943E2F6DA77EA78FA798AB24962FAD0E
:100B90002497E22FF0E0EE0FFF1FEE0FFF1F6E0E07
:100BA0007F1ED3018D919D910D90BC91A02D8DAB99
:100BB0009EABAFABB8AF2DAD3EADE20FF31F608182
:100BC0007181828193812DA93EA94FA958AD0E94C0
:100BD0003D2F69A77AA78BA79CA7D201C101B05866
:100BE0008DA39EA3AFA3B8A7A6019501505829A332
:100BF0003AA34BA35CA34DAD5EADE40EF51ED70149
:100C00006D917D918D919C9129A93AA94BA95CA9DF
:100C10000E943D2F3B014C01EDADFEAD0E0F1F1F9D
:100C2000D8016D917D918D919C912DA53EA54FA5EB
:100C300058A90E943D2F5B016C016DA17EA18FA17F
:100C400098A5A60195010E94EC327B018C0169A157
:100C50007AA18BA19CA1A40193010E94EC329B017B
:100C6000AC01C801B7010E943D2F1B012C016DA1F1
:100C70007EA18FA198A5A40193010E94EC327B0173
:100C80008C0169A17AA18BA19CA1A60195010E946A
:100C9000EC329B01AC01C801B7010E943E2F9B01C1
:100CA000AC01C201B1010E94B12F5B016C01A89699
:100CB0008FADA897882399F0C601B50120E030E0F8
:100CC00040E050E00E941A328823ECF0C601B501E2
:100CD0002BED3FE049EC50E40E943D2F12C0C601CD
:100CE000B50120E030E040E050E00E9417301816D7
:100CF00054F0C601B5012BED3FE049EC50E40E94F1
:100D00003E2F5B016C01C601B501A7962CAD3DAD30
:100D10004EAD5FADA7970E94EC3229A53AA54BA531
:100D20005CA50E9427327B018C0120E030E040E08E
:100D300050E00E941730882309F4D5C1C801B701DB
:100D40002091D8063091D9064091DA065091DB0601
:100D50000E941E300E94F4300E948B3078A36F8F67
:100D60002996BFAD2997BB23A1F080E090E00E94B7
:100D7000B7309B01AC0128966CAD7DAD8EAD9FADBB
:100D800028970E94EC3228966CAF7DAF8EAF9FAF54
:100D900028972F8D38A1B90180E090E00E94B730EC
:100DA0007B018C01C601B501A80197010E941E308C
:100DB0006B8F7C8F8D8F9E8F69A57AA58BA59CA547
:100DC000A80197010E941E306F8B788F898F9A8FB0
:100DD0006B8D7C8D8D8D9E8D20E030E040E05FEB53
:100DE0000E94EC322B8D3C8D4D8D5E8D0E94EC323D
:100DF00020E030E040E85FE30E943E2F6B8B7C8B6D
:100E00008D8B9E8B24963FAD2497E32FF0E0EE0F61
:100E1000FF1FEE0FFF1FCE010196E80FF91F2DA94E
:100E20003EA94FA958AD208331834283538341E0CB
:100E300050E05E874D8766242296BFAD2297AB2F88
:100E4000B0E0AA0FBB1FAA0FBB1FA80FB91F2B969C
:100E5000BFAFAEAF2B9723963FAD2397232F30E044
:100E6000220F331F220F331F280F391F2D963FAF3C
:100E70002EAF2D972F96FFAFEEAF2F970EC1262DD9
:100E8000332727FD30958091F60690E02817390723
:100E90000CF046C06DA17EA18FA198A52B8D3C8D35
:100EA0004D8D5E8D0E94EC327B018C0169A17AA18F
:100EB0008BA19CA12B893C894D895E890E94EC32D3
:100EC0009B01AC01C801B7010E943E2F7B018C0140
:100ED0006DA17EA18FA198A52B893C894D895E8942
:100EE0000E94EC325B016C0169A17AA18BA19CA1EB
:100EF0002B8D3C8D4D8D5E8D0E94EC329B01AC01A3
:100F0000C601B5010E943D2F6DA37EA38FA398A7B4
:100F10006394C701D80189A39AA3ABA3BCA361C002
:100F20004D855E85BA0180E090E00E94B7302B8D40
:100F30003C8D4D8D5E8D0E94EC327B018C01C80191
:100F40000E941B306F87788B898B9A8BB701C80101
:100F50000E946F333B014C01ABADBCADED90FD90F9
:100F60000D911C9117FB109517F91095E9ADFAAD8D
:100F70002080318042805380C801B7012F85388995
:100F800049895A890E94EC325B016C01C201B101AE
:100F9000A40193010E94EC329B01AC01C601B50192
:100FA0000E943E2F6DA37EA38FA398A7C801B7010F
:100FB000A40193010E94EC327B018C01C201B101BA
:100FC0002F85388949895A890E94EC329B01AC01EE
:100FD000C801B7010E943D2F69A37AA38BA39CA3EC
:100FE000662469A97AA98BA99CA92DA13EA14FA12C
:100FF00058A50E943E2F2B96AEADBFAD2B976D939B
:101000007D938D939C9313976DA57EA58FA598A92D
:1010100029A13AA14BA15CA10E943E2F2D96EEADD5
:10102000FFAD2D9760837183828393832F96AEAD3E
:10103000BFAD2F976D917D918D919C912F89388DAA
:10104000498D5A8D0E943E2F2F96EEADFFAD2F9702
:10105000608371838283938369817A818B819C8190
:101060002D813E814F815885E984FA840B851C854A
:101070002896ACACBDACCEACDFAC289729968FAC33
:1010800029970E946E048091BC05882361F52D8507
:101090003E852F5F3F4F3E872D874D855E858F8D27
:1010A00098A14817590708F4EACEADADBEAD6D91D1
:1010B0007D918D919C91139714962D913D914D9119
:1010C0005C9117971896ED90FD900D911C911B97D0
:1010D0002896ACACBDACCEACDFAC289729968FACD3
:1010E00029970E946E04C25BDF4F0FB6F894DEBFF3
:1010F0000FBECDBFCF91DF911F910F91FF90EF9069
:10110000DF90CF90BF90AF909F908F907F906F9027
:101110005F904F903F902F900895AF92BF92CF92E3
:10112000DF92EF92FF920F931F9359016A010E9481
:10113000B9302091C1063091C2064091C30650914A
:10114000C4060E941E306093D8057093D905809321
:10115000DA059093DB05C601B5010E94B9302091F4
:10116000C5063091C6064091C7065091C8060E9438
:101170001E306093DC057093DD058093DE0590934F
:10118000DF05C801B7010E94B9302091C90630912E
:10119000CA064091CB065091CC060E941E30609347
:1011A000E0057093E1058093E2059093E3051F91BC
:1011B0000F91FF90EF90DF90CF90BF90AF90089588
:1011C0000F931F93CF93DF93EC018B01D9018C9187
:1011D000FA01E80FF11DE081EE23B1F0E883E1545C
:1011E000EA3110F082E00EC08C918F5F8C93CA01BF
:1011F000B901A8010E943325892B19F021E030E0C4
:1012000005C081E08093CC0520E030E0C901DF918A
:10121000CF911F910F9108952F923F924F925F921D
:101220006F927F928F929F92AF92BF92CF92DF92F6
:10123000EF92FF920F931F93DF93CF93CDB7DEB75B
:10124000C754D0400FB6F894DEBF0FBECDBF4C01DF
:101250008091BD05863019F48CE00C94AC11198294
:101260008CE0FE013796DF01482F1D924A95E9F781
:10127000FE017396DF011D928A95E9F71092CC0565
:1012800024961FAE1EAE249722961FAE229721965B
:101290001FAE219712E0612E712C6C0E7D1EB3E003
:1012A0004B2E512C4C0E5D1E1E010894211C311C2E
:1012B000A3E0AA2ECC24C394F2E0BF2ED6C1EB80CB
:1012C000FC800D811E81C801B7010E94BA330E94C3
:1012D00086309B014A81473421F04D3409F0C5C165
:1012E00053C16E317105C9F16F317105D4F46431A8
:1012F000710584F461317105B4F56430710569F1EB
:10130000653071051CF477235CF525C06A307105E2
:1013100011F523C0663171057CF16C317105D9F48A
:101320001CC06C3571058CF46A357105FCF46C33A6
:1013300071053CF46633710514F56533710559F494
:101340000CC06035710539F40BC06C35710529F09E
:101350006F35710574F0DD2414C0DD24D39411C001
:10136000E2E0DE2E0EC073E0D72E0BC064E0D62E76
:1013700008C056E0D52E05C047E0D42E02C099E043
:10138000D92E2531310509F494C026313105A4F553
:101390002430310509F467C025303105A4F421302B
:1013A000310509F465C02230310524F4232B09F4FA
:1013B0005CC03AC12230310509F45DC023303105EB
:1013C00009F032C15BC02231310509F461C023311B
:1013D00031054CF42A30310509F443C0213131057F
:1013E00009F022C14EC02331310509F458C024311F
:1013F000310509F019C15AC02035310509F496C0EC
:1014000021353105ACF42533310509F485C0263387
:1014100031054CF42C31310509F44EC02E31310523
:1014200009F002C149C02C3331050CF0FDC079C070
:101430002C35310509F484C02D3531054CF42A359D
:10144000310509F477C02B35310509F0EDC075C0C1
:101450002D35310509F492C02E35310509F0E4C06F
:1014600090C0B2E087C0E1E04EC01092CD05DEC072
:10147000C092CD05DBC0B092CD05D8C0A092CD05FD
:10148000D5C01092E505C092E605B092E705CEC042
:10149000B092E5051092E605C092E705C7C0C0927C
:1014A000E505B092E6051092E705C0C0C092CF05F1
:1014B000BDC01092CF05BAC0C801B70120E030E02E
:1014C00040E251E40E94EC320E94BA330E9486301E
:1014D000F1E069317F0791F041E06A3174072CF443
:1014E0006851714009F0A0C00BC081E06C327807F0
:1014F00049F06D52714009F097C009C0A4E035C0B1
:10150000B3E038C0E5E02196EFAF21978FC0F6E059
:101510002196FFAF21978AC041E022964FAF2297D4
:1015200085C0822F86538093E80580C054E0509395
:10153000CD057CC0C092D00579C01092D00576C090
:10154000C801B70120E030E040E251E40E94EC32F3
:101550000E94BA330E94863083E06839780749F0E8
:101560006959734009F060C0A8E02196AFAF219798
:101570005DC0B7E02196BFAF219758C0C092CE059D
:1015800055C01092CE0552C06630710534F46330F8
:1015900071055CF4772334F403C06E31710511F0EA
:1015A000DD2405C085E0D82E02C008E0D02E24300E
:1015B000310569F12530310584F421303105B1F16F
:1015C000223031051CF4232BC9F02EC02230310506
:1015D000C1F02330310541F517C028303105F1F055
:1015E0002930310524F425303105F1F414C02930B7
:1015F0003105B9F02E313105B9F403C0C092D105DF
:1016000015C0B092D10512C0C092D2050FC0EFEF45
:10161000E093D2050BC01092D20508C0C092D3054A
:1016200005C01092D30502C0A092CC05DD20E9F0E0
:1016300021E030E002C0220F331FDA94E2F7249653
:101640008EAD9FAD249782239323892B21F0F5E063
:10165000F093CC050AC024964EAD5FAD2497422B83
:10166000532B24965FAF4EAF2497C301B201A40160
:1016700091010E94E008892B09F021CE8091CC05D0
:10168000882309F069C61982772425961FAE25970D
:1016900026961FAE269750E827965FAF27976FEBE9
:1016A00028966FAF28970F2EF0E02F2EF0E03F2EF8
:1016B000F0E04F2EF0E05F2EF02D2CAE3DAE4EAEA2
:1016C0005FAE1BAE5E010894A11CB11C13E0C12EDD
:1016D000B6E0DB2E46C11A811F347CF41D340CF0B9
:1016E00040C11C340CF080C019340CF05AC01634C0
:1016F000E9F0173409F017C134C1143509F4AFC04B
:10170000153554F4123509F47EC013350CF097C02A
:10171000103509F008C172C0193509F4D2C01A3564
:1017200009F4E8C0183509F0FEC0B2C0EB80FC80B7
:101730000D811E81C801B70120E030E040E050E09B
:101740000E941730181614F0D092CC058091CE0567
:10175000882381F08091CF05882309F4F6C0C80161
:10176000B70123E333E34BEC51E40E94EC327B01FD
:101770008C01EBC08091CF05882351F0C801B701DF
:1017800023E333E34BEC51E40E94EC327B018C0108
:10179000E092D405F092D5050093D6051093D705B5
:1017A000C4C02B813C814D815E818091CF0588230F
:1017B00051F0CA01B90123E333E34BEC51E40E9439
:1017C000EC329B01AC01E12FFF27E7FDF095E954D6
:1017D000F040EE0FFF1FEE0FFF1FEA0DFB1D228BE7
:1017E000338B448B558BA1C06B817C818D819E8115
:1017F0000E94BA330E948B306BAF97C02B803C8025
:101800004D805E8092C08B819C81AD81BE818CAF0A
:101810009DAFAEAFBFAF8091CF05882309F485C0DF
:101820006CAD7DAD8EAD9FAD23E333E34BEC51E466
:101830000E94EC326CAF7DAF8EAF9FAF76C06B81F4
:101840007C818D819E8120E030E040E050E00E946C
:10185000173088230CF069C0D092CC0566C0EB80AD
:10186000FC800D811E81C801B70120E030E040E01E
:1018700050E00E941730882314F4D092CC05C801A0
:10188000B7010E94BA330E948B306093E4054DC0CB
:101890002B813C814D815E818091CF05882351F061
:1018A000CA01B90123E333E34BEC51E40E94EC326B
:1018B0009B01AC012F83388749875A8791E0792AA9
:1018C00034C02B813C814D815E818091CF0588237E
:1018D00051F0CA01B90123E333E34BEC51E40E9418
:1018E000EC329B01AC012B873C874D875E87A2E0E1
:1018F0007A2A1BC02B813C814D815E818091CF056E
:10190000882351F0CA01B90123E333E34BEC51E4DE
:101910000E94EC329B01AC012F87388B498B5A8B8C
:10192000B4E07B2A02C0C092CC0525962FAD259746
:1019300026963FAD269727964FAD279728965FAD01
:101940002897C901DA017C018D012596EFAE259714
:101950002696FFAE269727960FAF279728961FAF9C
:101960002897CE010296BE016D5F7F4FA4019501BD
:101970000E94E008892B09F0AECEB72C25962FAD3A
:10198000259726963FAD269727964FAD2797289601
:101990005FAD2897C901DA018FAB98AFA9AFBAAF95
:1019A0008091CC05882309F0D7C48091BD0587308C
:1019B00041F08091D2050E94FC118091D3050E94D4
:1019C0001F122496EEADFFAD2497F1FF13C08E01D8
:1019D000015E1F4F8091E805B8010E941B1D8823FE
:1019E00009F4B9C4A9EEB5E0F8018CE001900D92BC
:1019F0008150E1F72196FFAD2197F43009F469C1D8
:101A0000F53048F4F23079F1F33008F0B6C0F13037
:101A100009F0B7C110C021964FAD2197463009F4A7
:101A200058C1463008F4A9C0473009F45FC14830B6
:101A300009F0A7C19FC1C201B10120E030E040E040
:101A400050E00E941730882324F486E08093CC0570
:101A500098C18091BD05873009F493C1C201B101DD
:101A60000E941A048EC15BAD523011F0543149F41A
:101A7000C201B1010E94BA330E94863067307105FD
:101A800020F083E08093CC057EC1772021F48BADDC
:101A9000823009F42DC1161617062CF44B01089458
:101AA0008108910804C08091E805882E9924582C5B
:101AB0008E01015E1F4F882DB8010E941B1D8823D7
:101AC00009F449C4E8EDAE2EE5E0BE2E77E0C72E5E
:101AD000D12CCC0EDD1E780100E010E0672C7724BD
:101AE000C301002E02C0959587950A94E2F780FF06
:101AF00020C09BAD943199F4D5016D917D918D916C
:101B00009C91F60120813181428153810E943D2FB9
:101B1000D7016D937D938D939C9313970AC0F60123
:101B200080819181A281B381F70180839183A28317
:101B3000B3830F5F1F4F44E050E0A40EB51EC40EE8
:101B4000D51EE40EF51E0330110551F68E01015E1F
:101B50001F4F852DB8010E94101D8091E80590E06F
:101B60008815990509F00FC1A9EEB5E0F8018CE0E0
:101B700001900D928150E1F706C1772009F478C0F9
:101B80008E01095F1F4F68EDE62E65E0F62ECC242E
:101B9000DD24A72CBB24C5010C2C02C0959587958C
:101BA0000A94E2F780FF35C08091D0058823F9F0D0
:101BB000D70151966D917D918D919C9154975D9631
:101BC0002D913D914D915C9190970E943E2F9B01EC
:101BD000AC01F80160817181828193810E943E2F66
:101BE000D8016D937D938D939C9313971CC0F8013E
:101BF0006081718182819381D7012D913D914D91B9
:101C00005C910E943E2FF8016083718382839383ED
:101C10000AC0F70180819181A281B381F80180839C
:101C20009183A283B3830894C11CD11C0C5F1F4F06
:101C300044E050E0E40EF51E53E0C516D10409F06F
:101C4000AACF6F81788589859A852B853C854D85BE
:101C50005E85EF84F88809891A89A090D306B09030
:101C6000D406C090D506D090D60688240E946E0473
:101C7000BE01655D7F4F21968FAD2197853011F4B0
:101C800087E001C086E00E941B1D882309F463C31E
:101C90006BA57CA58DA59EA52FA538A949A95AA9F4
:101CA000EBA8FCA80DA91EA9A090D306B090D4065D
:101CB000C090D506D090D60688240E946E04A8ED68
:101CC000B5E0FE01BB968CE001900D928150E1F7EA
:101CD0005AC021969FAD2197963011F487E001C03C
:101CE00086E068ED75E00E94101D4BC0772021F45E
:101CF00086E08093CC0548C008ED15E057E0C52E7E
:101D0000D12CCC0EDD1EEE24FF24A72CBB24C50154
:101D10000E2C02C0959587950A94E2F780FF1CC0AF
:101D2000D8016D917D918D919C91139751962D9134
:101D30003D914D915C9154970E943D2FF601208179
:101D40003181428153810E943D2FD8015D966D9370
:101D50007D938D939C9390970894E11CF11C0C5FEC
:101D60001F4FE4E0F0E0CE0EDF1EF3E0EF16F104CB
:101D700071F609C08CE0E5EFF5E0DF011D928A9570
:101D8000E9F7B72C01C0BB242396BFAD2397B2FD62
:101D900003C0BB2009F4CBC28091CE05882399F003
:101DA0006FA978AD89AD9AAD20E030E040E050E019
:101DB0000E94173088233CF48091CD05843019F0BF
:101DC00086E08093CC052296EFAD2297EE2339F082
:101DD0008091CD05823018F086E08093CC0580910B
:101DE000CC05882309F0B8C28E01095F1F4F48ED6A
:101DF000E42E45E0F42ECC24DD248B2C9924C40160
:101E00000C2C02C0959587950A94E2F780FF3BC0A1
:101E10002296FFAD2297FF2309F03FC08091D005A5
:101E20008823F9F0D70151966D917D918D919C9108
:101E300054975D962D913D914D915C9190970E94A4
:101E40003E2F9B01AC01F8016081718182819381F9
:101E50000E943E2FD8016D937D938D939C93139791
:101E60001CC0F8016081718182819381D7012D911D
:101E70003D914D915C910E943E2FF80160837183EA
:101E8000828393830AC0F70180819181A281B3810B
:101E9000F80180839183A283B3830894C11CD11C71
:101EA0000C5F1F4F44E050E0E40EF51E53E0C516F2
:101EB000D10409F0A4CF8091CD05843048F482305C
:101EC00008F05EC0882359F0813009F023C220C099
:101ED000843009F01FC2BB2009F41CC299C0BB208A
:101EE00009F496C06F81788589859A852B853C8514
:101EF0004D855E85EF84F88809891A89A090D306FC
:101F0000B090D406C090D506D090D606882435C0AF
:101F1000BB2009F47DC06F81788589859A852B85E2
:101F20003C854D855E85EF84F88809891A89809003
:101F3000CE058820A1F4A091D4052596AFAF2597B2
:101F4000B091D5052696BFAF2697E091D605279686
:101F5000EFAF2797F091D7052896FFAF28972596E2
:101F6000EFAD25972696FFAD26972796AFAD27971D
:101F70002896BFAD28975F016D010E946E04CAC10B
:101F800081E090E00090E70502C0880F991F0A9455
:101F9000E2F780958B21E1F16CAD7DAD8EAD9FAD0B
:101FA00020E030E040E050E00E9417308823A1F5A7
:101FB000E091E505F0E0EE0FFF1FEE0FFF1F8E0131
:101FC0000F5F1F4FE00FF11F628973898489958924
:101FD00020E030E040E050E00E9417308823E1F438
:101FE0008091E60590E0880F991F880F991F080FD0
:101FF000191FD80152966D917D918D919C915597A5
:1020000020E030E040E050E00E941730882321F4C7
:1020100086E08093CC057EC16CAD7DAD8EAD9FAD6D
:1020200020E030E040E050E00E9417308E010F5F6A
:102030001F4F882309F4F5C0E091E505F0E0EE0FAD
:10204000FF1FEE0FFF1FD801AE0FBF1FE852FA4F60
:1020500016966D917D918D919C911997208131817A
:10206000428153810E943D2F1B012C01E091E60526
:10207000F0E0EE0FFF1FEE0FFF1F0E0F1F1FE852C5
:10208000FA4FD80116966D917D918D919C9119977B
:1020900020813181428153810E943D2F3B014C01BF
:1020A0008CE0FE017396DF011D928A95E9F76CAD15
:1020B0007DAD8EAD9FAD20E030E040E850E40E9461
:1020C000EC322CAD3DAD4EAD5FAD0E94EC327B01EC
:1020D0008C01C201B101A20191010E94EC329B016D
:1020E000AC01C801B7010E943D2F7B018C01C401E6
:1020F000B301A40193010E94EC329B01AC01C80121
:10210000B7010E943D2F7B018C0120E030E040E0D0
:1021100050E00E941730882324F484E08093CC059B
:102120001BC1C801B7010E9479337B018C01C20138
:10213000B101A40193010E9427329B01AC0117FB5E
:10214000109517F91095C801B7010E941E306B0158
:102150007C018091CD05833021F4F7FAF094F7F8F3
:10216000F0946CAD7DAD8EAD9FAD20E030E040E0F1
:1021700050E00E94173088236CF4F7FAF094F7F8D7
:10218000F0944CAD5DAD6EAD7FAD70584CAF5DAFB2
:102190006EAF7FAF0091E505A02EBB24AA0CBB1C3F
:1021A000AA0CBB1C8E010F5F1F4FA00EB11EC401F5
:1021B000B301A70196010E94EC329B01AC01C20160
:1021C000B1010E943D2F20E030E040E05FE30E943B
:1021D000EC32D50152966D937D938D939C935597D8
:1021E0008091E60590E0880F991F880F991F080FCE
:1021F000191FC201B101A70196010E94EC329B0197
:10220000AC01C401B3010E943E2F20E030E040E069
:102210005FE30E94EC32F801628B738B848B958BA9
:1022200023C0E091E505F0E0EE0FFF1FEE0FFF1F6A
:10223000E00FF11F62897389848995892091E605F1
:1022400030E0220F331F220F331F020F131FD8015C
:1022500052962D913D914D915C9155970E94273258
:102260006CAF7DAF8EAF9FAF9091CD052091E5050E
:102270000091E605E090E7058090CE058820A1F466
:10228000B091D4052596BFAF2597E091D505269648
:10229000EFAF2697F091D6052796FFAF279740918D
:1022A000D70528964FAF289700D000D00F92EDB7F2
:1022B000FEB731964CAD5DAD6EAD7FADADB7BEB77F
:1022C00011964D935D936D937C93149780E09230BB
:1022D00009F481E0848388ED95E0BE01695F7F4F5A
:1022E000AE014D5E5F4F25963FAD25972696EFAD2B
:1022F00026972796FFAD27972896AFAD2897A32E50
:10230000BE2ECF2EDA2E0E9454050F900F900F9004
:102310000F900F908091CC058823F1F4A8EDB5E0E3
:10232000FE0137968CE001900D928150E1F780918B
:10233000D105882369F00E9402251092CB05809177
:10234000D105823019F40E94000402C01092D10518
:102350008091CC0501C08AE0C95BDF4F0FB6F894CD
:10236000DEBF0FBECDBFCF91DF911F910F91FF90C8
:10237000EF90DF90CF90BF90AF909F908F907F9025
:102380006F905F904F903F902F900895ECECF5E0A8
:1023900085E3DF011D928A95E9F78091CF06909140
:1023A000D006A091D106B091D2068093D405909327
:1023B000D505A093D605B093D7051092E50591E019
:1023C0009093E60582E08093E7059093D005809195
:1023D000E805BF01635E7F4F0E941B1D882319F42F
:1023E0008AE00E94C22A089510920001249A259A38
:1023F0002C9808952C9808951F93182F282F332771
:1024000027FD30958091000190E02817390771F081
:102410000E940225112339F0111614F42D9801C0E1
:102420002D9A2C9A01C02C98109300011F910895A9
:10243000109201013B9A43980895439808951F9381
:10244000182F80910101181749F00E9402251130C0
:1024500011F4439A01C04398109301011F9108950C
:10246000E0ECF0E080818D7F80831092C50087E6EC
:102470008093C400E1ECF0E0808180618083808102
:10248000886080838081806880830895282FE09110
:1024900004019E2F9F5F903431F490E004C080913E
:1024A000BE0584FD0FC0809105019817C1F3F0E0CF
:1024B000EF57F94F2083909304018091C10080620F
:1024C0008093C10008951F920F920FB60F921124AE
:1024D0008F939F93EF93FF9380910501E82FF0E096
:1024E000EF57F94F90819093C600982F9F5F9034DB
:1024F00009F490E09093050180910401981729F464
:102500008091C1008F7D8093C100FF91EF919F91D9
:102510008F910F900FBE0F901F901895909103010F
:1025200080910201891711F48FEF0895E92FF0E0EF
:10253000EF5FF94F8081E92FEF5FE03809F4E0E0C9
:10254000E0930301089580910201809303010895AF
:102550001F920F920FB60F9211242F933F934F9318
:102560005F936F937F938F939F93AF93BF93EF93FB
:10257000FF932091C6002132A1F0223218F42831B5
:10258000B9F413C02F3319F02E3791F404C08091A1
:10259000BE05816003C08091BE0582608093BE0548
:1025A00018C08091BE058860F9CF0E94000411C058
:1025B000E09102019E2F9F5F903809F490E0809196
:1025C0000301981731F0F0E0EF5FF94F208390930B
:1025D0000201FF91EF91BF91AF919F918F917F91F8
:1025E0006F915F914F913F912F910F900FBE0F9080
:1025F0001F9018951F920F920FB60F9211242F93D0
:102600003F934F935F936F937F938F939F93AF937A
:10261000BF93EF93FF9386B190E08095909587707C
:102620009070892B91F0309903C00E9400040DC076
:10263000319904C08091BE05886005C0329905C0FB
:102640008091BE0582608093BE05FF91EF91BF919E
:10265000AF919F918F917F916F915F914F913F913A
:102660002F910F900FBE0F901F901895CF93DF936F
:102670008091BE05882309F457C08091BE05C82FFC
:10268000D0E0CE0180769070892BE9F086E08093CF
:10269000BD05C6FF10C08FEF0E94222F81E00E946F
:1026A000982A8091BE058F7E8093BE058091BE05DD
:1026B00084FFFCCF03C08EEF0E94222F8091BE05C5
:1026C0008F798093BE05C4FF04C081E08093BC0570
:1026D0002BC0C0FF07C00E941D2B8091BE058E7FBE
:1026E0008093BE05C3FF07C00E9414168091BE05EB
:1026F000877F8093BE05C2FF07C00E941E1680918F
:10270000BE058B7F8093BE05C1FF0EC00E940A16D6
:102710008091E40681FF03C081E08093CB05809126
:10272000BE058D7F8093BE05DF91CF91089580E037
:1027300066E071E00E94871D882369F080910601A0
:10274000882361F086E091E00E94812A86E091E092
:102750000E940C0901C08AE00E94C22A81E066E062
:1027600071E00E94871D882321F48AE00E94C22A1A
:10277000089580910601882351F086E091E00E943F
:10278000812A86E091E00E940C090E94C22A0895E5
:10279000DF92EF92FF920F931F93DF93CF93CDB70A
:1027A000DEB729970FB6F894DEBF0FBECDBF7C0110
:1027B000FC018081843209F009C181E08983818133
:1027C000873481F1883474F48432C1F0853234F472
:1027D000882389F0833209F097C01AC0833409F046
:1027E00093C02AC08E3409F469C08835F1F1883469
:1027F00009F08AC04CC00E948E2AF3C082E089830F
:10280000F7018281882309F0E6C00E94C42DE9C047
:1028100082E08983F7018281882309F0DCC00E946D
:10282000062DDFC082E08983F7018281882309F0C9
:10283000D2C00E941A2CD5C082E08983F701828120
:10284000882309F0C8C08091BD05873021F40E941B
:10285000000485E007C0882309F0BFC087E08093AB
:10286000BD0584E00E94982ABCC082E08983F701FC
:102870008281882309F0AFC08091BD05863009F0C0
:10288000B0C083E00E94982A1092BD05AAC0809132
:10289000E40684FD02C017E0A5C08091BD05882331
:1028A00019F0863009F099C00E94BE048091BC05E1
:1028B000882309F096C00E94971393C082E0898311
:1028C000F7018281882319F0DD24D3941EC080E0B3
:1028D000B7010E94871D882329F080E0B7010E947C
:1028E000E12C03C08AE00E94C22A81E0B7010E9465
:1028F000871D882321F48AE00E94C22A72C081E0E9
:10290000B7010E94E12C6DC0DD24C7018E010F5F6D
:102910001F4FB801AE014E5F5F4F0E943325892BD8
:1029200009F45DC09981F701E90FF11D80818D33B4
:1029300009F051C0892F8F5F8983DD2041F1482F35
:1029400050E02981822F90E0FC01E41BF50BEE0D95
:10295000FF1DD701A80FB91F8C9180838C912F5F29
:102960002983882371F7C7010E940C09182F882337
:10297000C9F56A817B818C819D810E94BA330E9456
:102980008B30DC01CB01B7010E947C1D2BC0C7013D
:10299000B801AE014A5F5F4F0E943325892BF9F0E1
:1029A0008981E80EF11CF70180818823A1F46A81F6
:1029B0007B818C819D810E948630DC01CB014E8120
:1029C0005F81688579850E94131B03C0C7010E943F
:1029D0000C09182F07C013E005C01BE003C011E06D
:1029E00001C010E0812F29960FB6F894DEBF0FBE0C
:1029F000CDBFCF91DF911F910F91FF90EF90DF90AE
:102A000008951F9311E046C02A3011F02D30B1F423
:102A10000E9436138091BC05882309F041C0E091E3
:102A20004C01EE2349F0F0E0EA5FFE4F108286E0B1
:102A300091E00E94C81317C080E015C080914D013D
:102A4000882319F0293231F512C0213218F12F32C2
:102A500009F1283219F410934D011CC090914C01DA
:102A6000953440F08DE00E94C22A10924C011092E1
:102A70004D0110C0822F8156E92FF0E09F5F8A310F
:102A800020F4EA5FFE4F205202C0EA5FFE4F20832F
:102A900090934C010E948E12282F8F3F09F0B4CFE3
:102AA0001F91089510924C0110924D010E94932A9B
:102AB00087B1887F87B988B1876088B9ECE6F0E094
:102AC000808187608083E8E6F0E080818260808397
:102AD00008958091E40682FF02C0289A01C02898D8
:102AE0008091BD058330C1F48091D7068093750134
:102AF0008091CE0690E0A0E0B0E00297A109B10974
:102B0000880F991FAA1FBB1F819580937401809124
:102B10006F00826080936F0008951F920F920FB62E
:102B20000F9211248F939F939BB18091D7068C7144
:102B3000937E892B8BB91092B1009F918F910F904A
:102B40000FBE0F901F9018959B01AC01203283E0BF
:102B5000380780E0480780E0580720F420E233E09F
:102B600040E050E060E070E788E399E30E94F833CA
:102B7000C901DA01803020E0920721E0A20720E0BD
:102B8000B20730F4BC019C0140E050E091E02FC05E
:102B9000803020E0920728E0A20720E0B207A0F4EE
:102BA00023E0B695A795979587952A95D1F7BC010F
:102BB0009C0140E050E0A3E0220F331F441F551F4B
:102BC000AA95D1F792E013C0F6E0B695A795979530
:102BD0008795FA95D1F7BC019C0140E050E0E6E012
:102BE000220F331F441F551FEA95D1F793E08091C0
:102BF0008100887F982B9093810070938900609367
:102C000088002093620130936301409364015093E4
:102C1000650108958091BD05823029F483E0809399
:102C2000BD050E94691508958091BD05833029F482
:102C300084E08093BD051092CB050895E091720168
:102C4000F09173013097C1F165857685878590890C
:102C500020915E0130915F014091600150916101CE
:102C6000621B730B840B950B0E940D2110926A015D
:102C700010926B0110926C0110926D0160E070E097
:102C800080E090E00E94A41580E091E7A2E0B0E02F
:102C90008093660190936701A0936801B0936901E6
:102CA00010925E0110925F0110926001109261011A
:102CB00082E08093BD0508951092BD05089584E2D9
:102CC000EEE4F1E0DF011D928A95E9F760E273E03E
:102CD00080E090E00E94A41510927301109272019E
:102CE00010927601089580916F008D7F80936F0020
:102CF0009091F4069F3F21F48091BE0585FF0BC0A3
:102D0000892F90E00E94EE258091E40682FF02C0A8
:102D100028980895289A08958AB18C6F8AB98BB142
:102D200083709091D706892B8BB9209AE1E8F0E067
:102D300080818F7E8083808188608083E0E8F0E0FE
:102D400080818D7F808380818E7F808380818F735F
:102D5000808380818F7C80831092B0001092B100BC
:102D6000E0E7F0E08081816080830E9469150E9425
:102D7000731608951F920F920FB60F921124EF92BF
:102D8000FF920F931F932F933F934F935F936F93F4
:102D90007F938F939F93AF93BF93CF93DF93EF93E3
:102DA000FF9380917601882309F06EC39BB1209137
:102DB0007501822F807E9F71892B8BB98BB1837EA9
:102DC000822B8BB9809174018093B20082E0809352
:102DD000B10081E0809376017894809172019091A6
:102DE0007301892B09F07FC00E94B91DEC019093FB
:102DF000730180937201009709F46EC08091BD0544
:102E00008330D1F46BA17CA18DA19EA160936A0156
:102E100070936B0180936C0190936D010E94A415D7
:102E200080E091E7A2E0B0E08093660190936701B3
:102E3000A0936801B09369012BA53CA54DA55EA5A3
:102E4000DA01C901B595A79597958795820F931FCC
:102E5000A41FB51F80936E0190936F01A093700122
:102E6000B09371012D853E854F855889DA01C901DE
:102E7000B595A79597958795B095A09590958195CF
:102E80009F4FAF4FBF4F80934E0190934F01A09340
:102E90005001B09351018093520190935301A0933C
:102EA0005401B09355018093560190935701A0931C
:102EB0005801B093590120935A0130935B0140931C
:102EC0005C0150935D0110925E0110925F011092BF
:102ED00060011092610107C00E9473168091BE05C7
:102EE00084608093BE05E0917201F0917301309788
:102EF00009F4C1C220812093750140914E01509187
:102F00004F01609150017091510181819281A381A3
:102F1000B481480F591F6A1F7B1F40934E01509385
:102F20004F01609350017093510114161506160657
:102F30001706C4F524602093750180915A01909181
:102F40005B01A0915C01B0915D01481B590B6A0BBC
:102F50007B0B40934E0150934F016093500170934F
:102F6000510125FF0CC08091BF059091C005A09133
:102F7000C105B091C2050197A109B1090BC08091AB
:102F8000BF059091C005A091C105B091C205019601
:102F9000A11DB11D8093BF059093C005A093C105ED
:102FA000B093C20540915201509153016091540178
:102FB0007091550185819681A781B085480F591F71
:102FC0006A1F7B1F40935201509353016093540139
:102FD000709355011416150616061706D4F52091A0
:102FE000750128602093750180915A0190915B01D1
:102FF000A0915C01B0915D01481B590B6A0B7B0BE2
:1030000040935201509353016093540170935501C2
:1030100026FF0CC08091C3059091C405A091C50501
:10302000B091C6050197A109B1090BC08091C305F4
:103030009091C405A091C505B091C6050196A11D4A
:10304000B11D8093C3059093C405A093C505B093AB
:10305000C6054091560150915701609158017091F9
:10306000590181859285A385B485480F591F6A1F30
:103070007B1F409356015093570160935801709302
:1030800059011416150616061706D4F52091750178
:1030900020612093750180915A0190915B01A0916C
:1030A0005C01B0915D01481B590B6A0B7B0B40938F
:1030B000560150935701609358017093590127FFAF
:1030C0000CC08091C7059091C805A091C905B09129
:1030D000CA050197A109B1090BC08091C70590915C
:1030E000C805A091C905B091CA050196A11DB11DE1
:1030F0008093C7059093C805A093C905B093CA05EE
:1031000020915E0130915F01409160015091610119
:103110002F5F3F4F4F4F5F4F20935E0130935F0112
:10312000409360015093610185859685A785B0899C
:10313000281739074A075B0708F097C18091BD053A
:10314000843009F05BC020916201309163014091AD
:103150006401509165018091660190916701A09191
:103160006801B0916901280F391F4A1F5B1F209326
:1031700066013093670140936801509369012130E3
:1031800002EE300704E0400700E0500708F473C186
:103190002050324E444050402093660130936701E6
:1031A000409368015093690120916A0130916B014D
:1031B00040916C0150916D0163A574A585A596A5FC
:1031C000621773078407950740F00E947316809179
:1031D000BE0584608093BE054EC179018A01E61A5E
:1031E000F70A080B190BC801B701E0926A01F092C7
:1031F0006B0100936C0110936D016CC087A590A9C1
:10320000A1A9B2A9281739074A075B0708F065C0CA
:1032100020916201309163014091640150916501F8
:103220008091660190916701A0916801B091690158
:10323000280F391F4A1F5B1F2093660130936701D7
:103240004093680150936901213002EE300704E099
:10325000400700E0500708F40EC12050324E4440B1
:10326000504020936601309367014093680150936A
:10327000690183A594A5A5A5B6A520916A01309101
:103280006B0140916C0150916D01820F931FA41F3F
:10329000B51F80936A0190936B01A0936C01B0936A
:1032A0006D0127A930AD41AD52AD82179307A40738
:1032B000B50740F020936A0130936B0140936C0195
:1032C00050936D0160916A0170916B0180916C0166
:1032D00090916D010E94A415CEC083A994A9A5A9BF
:1032E000B6A9281739074A075B0708F4A2C02817B0
:1032F00039074A075B0779F520916A0130916B0124
:1033000040916C0150916D0187A990ADA1ADB2AD16
:10331000281739074A075B0729F480E091E7A2E004
:10332000B0E010C080E092EEA4E0B0E02091660131
:10333000309167014091680150916901821B930BA4
:10334000A40BB50B8093660190936701A09368016D
:10335000B093690190C02091620130916301409166
:103360006401509165018091660190916701A0917F
:103370006801B0916901280F391F4A1F5B1F209314
:1033800066013093670140936801509369012130D1
:1033900012EE310714E0410710E0510708F46BC04A
:1033A0002050324E444050402093660130936701D4
:1033B000409368015093690120916A0130916B013B
:1033C00040916C0150916D0180916E0190916F015F
:1033D000A0917001B091710182179307A407B507FE
:1033E00048F483A594A5A5A5B6A5281B390B4A0BBF
:1033F0005B0B04C0569547953795279520936A0136
:1034000030936B0140936C0150936D0127A130A55F
:1034100041A552A580916A0190916B01A0916C0128
:10342000B0916D0182179307A407B50708F04ACF42
:1034300041CF27A930AD41AD52AD80916A01909145
:103440006B01A0916C01B0916D0182179307A407E5
:10345000B50789F020936A0130936B0140936C01AA
:1034600050936D01CA01B90135CF109273011092CA
:1034700072010E94AA1D809175019091D70689273B
:103480008093750110927601FF91EF91DF91CF91BA
:10349000BF91AF919F918F917F916F915F914F916C
:1034A0003F912F911F910F91FF90EF900F900FBEC2
:1034B0000F901F901895F999FECF92BD81BD81E0C4
:1034C0008FBB80B50895F894F999FECF92BD81BD68
:1034D00081E08FBB40B54627842F992787FD9095C3
:1034E000262F30E082239323892B39F06F3F19F088
:1034F00060BD84E006C084E104C0442321F060BDC7
:1035000084E28FBBF99A789408958F929F92AF923C
:10351000BF92CF92DF92EF92FF920F93DF93CF9300
:1035200000D0CDB7DEB75C016B017A014A0100E043
:103530001EC0002319F021E030E008C0202F3327FF
:1035400027FD30952227330F221F3327F601619183
:103550006F01062F020F9C012F5F3F4F3A83298393
:103560000E94631A08948108910889819A818114C4
:103570009104F9F6C7018A0D9B1D602F0E94631A02
:103580000F900F90CF91DF910F91FF90EF90DF9010
:10359000CF90BF90AF909F908F900895CF93DF937F
:1035A000EC01FB019A0190E0B1E019C0F999FECF5E
:1035B000F2BDE1BDBFBBA0B5992319F081E090E059
:1035C00008C0892F992787FD90958827990F881F14
:1035D000992731969A2F980FA993215030402115A1
:1035E000310521F7460F571FF999FECF52BD41BD56
:1035F00081E08FBB80B520E030E0981711F421E026
:1036000030E0C901DF91CF91089580E090E065E05E
:103610000E94631A81E090E061EC76E046E350E0BE
:103620000E94851A0895EF92FF920F931F93CF93F4
:10363000DF93EC017A018B01FC018731910540F4A5
:10364000EC5CFF4FEE0FFF1F0590F491E02D099405
:1036500086E01FC1CB01BA0120E030E040E050E03D
:103660000E941730181614F088E013C1CC0FDD1F2C
:10367000CC0FDD1FCF53D94FE882F9820A831B8319
:1036800005C1CB01BA0120E030E040E450E40E94E3
:103690001730882314F489E0FCC0C801B7010E94E8
:1036A0004F330E948B306093CE06F0C04093CF061C
:1036B0005093D0066093D1067093D206E7C0409332
:1036C000D3065093D4066093D5067093D606DEC019
:1036D000CB01BA010E94BA330E948B306093D706A7
:1036E000D5C0CB01BA010E944F330E948B3060934A
:1036F000F406CCC0CB01BA0120E030E040E752E450
:103700000E94EC3220E030E040E752E40E94EC32CC
:103710006093DC067093DD068093DE069093DF06EF
:10372000B5C0DB01CA01BF778093E0069093E10644
:10373000A093E206B093E306A9C04093D806509345
:10374000D9066093DA067093DB06A0C0CB01BA01FC
:103750000E944F330E948B306093F60697C0CB01D6
:10376000BA010E944F330E948B306093F5068EC0E1
:10377000CB01BA0120E030E040E050E00E94173079
:10378000882321F08091E406816011C08091E406D5
:103790008E7F0DC0CB01BA0120E030E040E050E068
:1037A0000E941730882331F08091E4068260809374
:1037B000E4066CC08091E4068D7FF9CFCB01BA019D
:1037C00020E030E040E050E00E941730882321F0F4
:1037D0008091E4068460EBCF8091E4068B7FE7CF95
:1037E000CB01BA0120E030E040E050E00E94173009
:1037F000882321F08091E406886003C08091E4066C
:10380000877F8093E4060E94752640C0CB01BA01F1
:1038100020E030E040E050E00E941730882321F0A3
:103820008091E4068061C3CF8091E4068F7EBFCF94
:10383000CB01BA010E94BA330E948B306093E50637
:1038400025C04093E6065093E7066093E806709320
:10385000E9061CC04093EA065093EB066093EC0621
:103860007093ED0613C0CB01BA010E944F330E9442
:103870008B307093EF066093EE0608C04093F0061D
:103880005093F1066093F2067093F3060E94051BB5
:1038900080E0DF91CF911F910F91FF90EF900895FD
:1038A000882309F45AC080E090E0AAE7B3E480934B
:1038B000C1069093C206A093C306B093C40680933A
:1038C000C5069093C606A093C706B093C80680931A
:1038D000C9069093CA06A093CB06B093CC062AE003
:1038E0002093CE068093CF069093D006A093D10666
:1038F000B093D20680E090E0AAEFB3E48093D306C1
:103900009093D406A093D506B093D60680E090EAB3
:10391000ACE0B7E48093DC069093DD06A093DE066E
:10392000B093DF068DEC9CECACECBDE38093D80645
:103930009093D906A093DA06B093DB0680EC8093CF
:10394000D7068DEC9CECACE4BDE38093E00690934D
:10395000E106A093E206B093E30682E08093E406DA
:103960001092E50680E090E0A8ECB1E48093E606D2
:103970009093E706A093E806B093E90680E090E014
:10398000AAE7B3E48093EA069093EB06A093EC06D3
:10399000B093ED0684E690E09093EF068093EE06F8
:1039A00080E090E0A0E8BFE38093F0069093F106FA
:1039B000A093F206B093F30699E19093F40683E0A6
:1039C0008093F5069093F6060E94051B089580E00B
:1039D00090E00E945B1A853079F481EC96E061E01A
:1039E00070E046E350E00E94CE1A20E0892B09F4F3
:1039F00021E081E0282712C0853078F481EC96E040
:103A000061E070E043E250E00E94CE1A892B29F079
:103A100080E00E94501C21E001C020E0822F089528
:103A20009DE0899FC001112480509E4F4CE050E0E2
:103A30000E94851A08950F931F93CF93DF93162F3B
:103A4000072F9DE0899FE0011124C050DE4F862F93
:103A5000972FBE014CE050E00E94CE1A892B11F046
:103A600081E00FC0E12FF02F8CE0DF011D928A95DD
:103A7000E9F7CE01612F702F4CE050E00E94851ACB
:103A800080E0DF91CF911F910F910895EF92FF9207
:103A90001F93DF93CF93CDB7DEB72C970FB6F89473
:103AA000DEBF0FBECDBF0E94E71C882341F48AE031
:103AB0000E94C22A81E00E94501C0E94C42D10E086
:103AC0007E010894E11CF11C812FB7010E941B1D8F
:103AD000882319F48AE00E94C22A1F5F1830A1F7D8
:103AE0002C960FB6F894DEBF0FBECDBFCF91DF91FD
:103AF0001F91FF90EF90089597E4899FC0011124D2
:103B000080509D4F46E450E00E94851A08950F931F
:103B10001F93CF93DF938B0197E4899FE0011124DA
:103B2000C050DD4FCB01BE0146E450E00E94CE1AEA
:103B3000892B11F081E009C0F8011082CE01B80193
:103B400046E450E00E94851A80E0DF91CF911F91FA
:103B50000F91089590919D0580919E05981741F0D1
:103B600080919E058F5F823109F480E080939E05ED
:103B7000089590919D0580919E05981719F420E075
:103B800030E008C090919E058BE3989F900111242E
:103B900029583E4FC901089590919E0520E08091DB
:103BA0009F05981709F421E0822F0895EF92FF9264
:103BB0000F931F936093A0057093A1058093A205B6
:103BC0009093A3052093A4053093A5054093A605E3
:103BD0005093A705E092A805F092A9050093AA05C5
:103BE0001093AB051F910F91FF90EF9008958F9266
:103BF0009F92AF92BF92CF92DF92EF92FF920F937C
:103C00001F93CF93DF93EC016B01009709F460C021
:103C10008AA1882309F05CC0ED88FE880F89188D81
:103C2000FB01B588A6889788808CC801B7012B2D29
:103C30003A2D492D582D0E94173088230CF048C08A
:103C4000C801B701A80197010E94EC327B018C01E9
:103C50006091DC067091DD068091DE069091DF06B2
:103C6000905820E030E040E050EC0E94EC322D8D86
:103C70003E8D4F8D58A10E94EC329B01AC01C801D2
:103C8000B7010E943E2F0E9479337B018C016B2D7E
:103C90007A2D892D982D9701A8010E94173088232D
:103CA00024F4EB2CFA2C092D182D6B2D7A2D892D4F
:103CB000982D9701A8010E941730882349F0C70169
:103CC000D801F601858B968BA78BB08F81E081A3FD
:103CD000DF91CF911F910F91FF90EF90DF90CF90E8
:103CE000BF90AF909F908F9008952F923F924F92E8
:103CF0005F926F927F928F929F92AF92BF92CF927C
:103D0000DF92EF92FF920F931F93DF93CF93CDB784
:103D1000DEB768970FB6F894DEBF0FBECDBF1C01AB
:103D20006A017B0128013901DC01D7966D917D91F3
:103D30008D919C91DA970E94B7304B015C01A701ED
:103D400096010E94EC320E9404300E948B307B016D
:103D50008C01F10163A374A385A396A3C501B401EB
:103D6000A30192010E94EC320E9404300E948B3029
:103D700069877A878B879C87D10197966D937D930E
:103D80008D939C939A979B966D917D918D919C912B
:103D90009E9722E330E040E050E00E94D9330E9439
:103DA000B93020E030E040E752E40E94EC320E945B
:103DB00086302B013C01C801B7010E94B7307B015E
:103DC0008C01C301B2010E94B9306D837E838F8361
:103DD0009887C501B401A50194010E94EC325B01F2
:103DE0006C01C801B701A80197010E94EC326D87F0
:103DF0007E878F87988B6D817E818F8198859B01CF
:103E0000AC010E943E2F698B7A8B8B8B9C8BC601F9
:103E1000B5012D853E854F8558890E943D2F298902
:103E20003A894B895C890E941E300E9404300E94AE
:103E3000863069837A838B839C8369857A858B85B9
:103E40009C850E94B7309B01AC010E94EC326D8BC7
:103E50007E8B8F8B988FA60195010E943D2F7B0151
:103E60008C017094609450944094411C511C611CCE
:103E7000711CC301B2010E94B9309B01AC010E94C8
:103E80003E2F9B01AC01C801B7010E941E300E9469
:103E9000F430F101A584B684C784D0888601750109
:103EA00029813A814B815C81E21AF30A040B150BDC
:103EB0000E948630A8019701261B370B480B590B2F
:103EC000DA01C90157FF4AC0C601B5010E94B930E5
:103ED0009B01AC0169897A898B899C890E94EC32AB
:103EE0002D853E854F8558890E943D2F2D893E891D
:103EF0004F89588D0E943E2F7B018C016D817E8100
:103F00008F81988520E030E040E850E40E94EC3258
:103F10009B01AC01C801B7010E941E300E94043011
:103F20000E948630AC01CB01DA01BC01CD0197FFC4
:103F300004C060E070E080E090E069837A838B8366
:103F40009C83A616B706C806D90624F4A982BA82AD
:103F5000CB82DC8280E090E0A0E0B0E029813A8171
:103F60004B815C81F10127A730AB41AB52AB820F93
:103F7000931FA41FB51F83AB94ABA5ABB6AB6896DC
:103F80000FB6F894DEBF0FBECDBFCF91DF911F916A
:103F90000F91FF90EF90DF90CF90BF90AF909F90E8
:103FA0008F907F906F905F904F903F902F900895EB
:103FB0002F923F924F925F927F928F929F92AF92F9
:103FC000BF92CF92DF92EF92FF920F931F93CF9306
:103FD000DF93D0909D058091DC069091DD06A09145
:103FE000DE06B091DF061C012D0157FA509457F8F8
:103FF000509400E010E0C0E0D0E0BB24B3943BE379
:10400000C32E72C0DD2011F422E1D22EDA94209763
:1040100009F463C00115110509F45FC0A98C9A8CDD
:104020008B8C7C8C6D897E898F89988D2A2D392D7A
:10403000482D572D0E941730882309F44EC08AA1BD
:10404000882309F041C0F801E588F6880789108DBA
:104050006A2D792D882D972DA80197010E941A327B
:10406000181694F5C801B701A80197010E94EC3217
:104070007B018C01C201B10120E030E040E050EC56
:104080000E94EC322D8D3E8D4F8D58A10E94EC3256
:104090009B01AC01C801B7010E943E2F0E947933F9
:1040A000162F072FF82EE92E6A2D792D882D972DA2
:1040B000212F302F4F2D5E2D0E94173087FD04C019
:1040C000A12E902E8F2C7E2C8A2D992DA82DB72DC8
:1040D0008D8B9E8BAF8BB88FB9A2DC9CC001112455
:1040E0008E01EC01C958DE4F80919E05D81609F06B
:1040F00089CFF0909E0520E030E000E010E09BE3E7
:10410000E92E11C0FE9CE0011124C958DE4FC901FF
:10411000B801AE010E94F71DF394F2E1FF1609F415
:10412000FF2498018E0180919D05F81659F7C90169
:10413000B80140E050E00E94F71D70909E05C0E07D
:10414000D0E08BE3582E35C0759C4001112487E7E1
:1041500091E0880E991E209731F189A1882321F4DE
:10416000F40181A18823F9F0E988FA880B891C8978
:104170006D897E898F89988DA80197010E941E30D4
:104180005B016C01F401658976898789908DA801AE
:1041900097010E941E308B019C01CE01B601A50142
:1041A0000E94751E19A27394F2E17F1609F4772418
:1041B000E40180919D05781639F6E988FA880B8923
:1041C0001C896D897E898F89988DA80197010E942D
:1041D0001E305B016C0160E070E080E090E0A801BF
:1041E00097010E941E308B019C01CE01B601A501F2
:1041F0000E94751E19A2DF91CF911F910F91FF9020
:10420000EF90DF90CF90BF90AF909F908F907F9076
:104210005F904F903F902F900895AF92BF92CF92B2
:10422000DF92EF92FF920F931F93CF93DF935B0187
:104230006C0190919E058BE3989FE0011124C95871
:10424000DE4FC601B5010E94B9302D8D3E8D4F8DD8
:1042500058A10E94EC327B018C016D857E858F8593
:1042600098890E94B9309B01AC01C801B7010E9436
:104270001E306D8F7E8F8F8F98A3AD86BE86CF86C2
:10428000D88A80E090E0A0E0B0E08D8B9E8BAF8B71
:10429000B88F898F9A8FAB8FBC8F1AA281E089A3C8
:1042A0000E94D81FDF91CF911F910F91FF90EF9047
:1042B000DF90CF90BF90AF9008952F923F924F9292
:1042C0005F926F927F928F929F92AF92BF92CF92A6
:1042D000DF92EF92FF920F931F93DF93CF93CDB7AF
:1042E000DEB7AF970FB6F894DEBF0FBECDBF290182
:1042F0003A01ADA2BEA2CFA2D8A689A630919D0553
:104300002BE3329F1001112427E731E0220E331EE8
:104310002091C1063091C2064091C3065091C40657
:104320000E94EC320E94BC3269837A838B839C8327
:10433000C301B2012091C5063091C6064091C7065F
:104340005091C8060E94EC320E94BC326D837E837D
:104350008F839887C801B7012091C9063091CA069A
:104360004091CB065091CC060E94EC320E94BC32A8
:1043700069877A878B879C87D1011C9229813A8132
:104380004B815C818091A0059091A105A091A2052F
:10439000B091A305281739074A075B071CF480E290
:1043A000F10180832D813E814F8158858091A40544
:1043B0009091A505A091A605B091A70528173907EA
:1043C0004A075B0724F4D1018C9180648C93298582
:1043D0003A854B855C858091A8059091A905A091AF
:1043E000AA05B091AB05281739074A075B0724F4E3
:1043F000F10180818068808329813A814B815C81D1
:104400008091A0059091A105A091A205B091A3056E
:10441000281B390B4A0B5B0B57FF07C05095409583
:10442000309521953F4F4F4F5F4FD10111962D93FE
:104430003D934D935C931497AD80BE80CF80D8841C
:104440008091A4059091A505A091A605B091A7051E
:10445000A81AB90ACA0ADB0AF101A582B682C78284
:10446000D086D7FE0BC088279927DC018A199B09C3
:10447000AC09BD0985839683A783B08729853A85D2
:104480004B855C858091A8059091A905A091AA050E
:10449000B091AB05281B390B4A0B5B0B57FF07C0CC
:1044A00050954095309521953F4F4F4F5F4FD1012B
:1044B00019962D933D934D935C931C971596ED9013
:1044C000FD900D911C91189711968D919D910D90D5
:1044D000BC91A02D8E159F05A007B10710F4D8013F
:1044E000C70182179307A407B50710F4DA01C901C1
:1044F000F10185879687A787B08B0097A105B10545
:1045000009F467C269817A818B819C812091A00521
:104510003091A1054091A2055091A305621B730B38
:10452000840B950B0E94B9302091C1063091C206D0
:104530004091C3065091C4060E941E3069A37AA31D
:104540008BA39CA3C601B5010E94B9302091C5067A
:104550003091C6064091C7065091C8060E941E3091
:104560006D8F7E8F8F8F98A369857A858B859C85CB
:104570002091A8053091A9054091AA055091AB055D
:10458000621B730B840B950B0E94B9302091C906F6
:104590003091CA064091CB065091CC060E941E3045
:1045A000698F7A8F8B8F9C8F69A17AA18BA19CA137
:1045B0009B01AC010E94EC327B018C016D8D7E8DE4
:1045C0008F8D98A19B01AC010E94EC329B01AC0144
:1045D000C801B7010E943E2F7B018C01698D7A8D45
:1045E0008B8D9C8D9B01AC010E94EC329B01AC0138
:1045F000C801B7010E943E2F0E9479337B018C01D4
:10460000D1015D966D937D938D939C93909760E01F
:1046100070E080E89FE3A80197010E941E303B01F3
:104620004C01B9A5BB2349F46DA17EA18FA198A52A
:10463000A40193010E94EC320AC060E070E080E8BF
:104640009FE32DA13EA14FA158A50E941E305B0102
:104650006C01C801B701A60195010E94EC326AA75E
:104660007BA78CA79DA7F101618B728B838B948BA9
:1046700065857685878590890E94B9307B018C019C
:10468000A60195010E94EC320E9404300E948B30FA
:10469000D101D7966D937D938D939C93DA97C80142
:1046A000B701A40193010E94EC322091DC06309105
:1046B000DD064091DE065091DF060E94EC3220E0DC
:1046C00030E84BE355E40E941E300E9404300E9403
:1046D0008630F10163A774A785A796A769A17AA17F
:1046E0008BA19CA1A40193010E94EC327B018C015F
:1046F0006D877E878F87988B6D8D7E8D8F8D98A12E
:10470000A40193010E94EC325B016C01698B7A8BEE
:104710008B8B9C8B698D7A8D8B8D9C8DA4019301E5
:104720000E94EC323B014C016D8B7E8B8F8B988FFE
:1047300090919D0580919E05981709F4BDC0F09158
:10474000B805FEA72091B9052FA75090BA05409053
:10475000BB056F2F722F852D942D20E030E040E0B7
:1047600050E00E941A3218160CF0A6C06091AC05F9
:104770007091AD058091AE059091AF059058A8015C
:1047800097010E94EC327B018C016091B005709121
:10479000B1058091B2059091B305A60195010E94E3
:1047A000EC329B01AC01C801B7010E943D2F7B0197
:1047B0008C01C401B3012091B4053091B50540913D
:1047C000B6055091B7050E94EC329B01AC01C801BF
:1047D000B7010E943D2F7B018C0123E333E343E7C4
:1047E0005FE30E94173088230CF066C06EA57FA59A
:1047F000852D942D2AA53BA54CA55DA50E941730BB
:1048000087FD08C08AA59BA5ACA5BDA58EA79FA7BF
:104810005A2E4B2EC801B70123E333E343E75FEB86
:104820000E941A3218160CF04CC060E070E080E86C
:104830009FE3A80197010E943D2F20E030E040E077
:104840005FE30E94EC320E9479335B016C0160915E
:10485000DC067091DD068091DE069091DF062091E6
:10486000E0063091E1064091E2065091E3060E9495
:10487000EC32A60195010E94EC327B018C0160E0D4
:1048800070E080E89FE3A60195010E943D2F9B0107
:10489000AC01C801B7010E941E300E9479337B0130
:1048A0008C016EA57FA5852D942D9701A8010E94EE
:1048B000173087FD06C009C0EE24FF2400E010E099
:1048C00004C0EEA4FFA4052D142DC701D801F101E9
:1048D000818F928FA38FB48F6091DC067091DD067B
:1048E0008091DE069091DF06905820E030E040E0B5
:1048F00050EC0E94EC32D1015D962D913D914D918D
:104900005C9190970E94EC3220E030E040E050E073
:104910000E943E2F0E947933D62EC72EB82EA92E84
:10492000B701C8012D2D3C2D4B2D5A2D0E9417305B
:1049300087FD04C0ED2CFC2C0B2D1A2DC701D801CE
:10494000F101858B968BA78BB08F618972898389E2
:1049500094892D2D3C2D4B2D5A2D0E941730181661
:104960002CF081E0D10192968C9302C0F10112A249
:1049700081E0D10191968C93ACEAB5E0FE013D96C1
:104980008CE001900D928150E1F7F10181899289CB
:10499000A389B4898093B8059093B905A093BA050B
:1049A000B093BB0580919F0580939D0580919D05E7
:1049B0008F5F823109F480E080939F05A0EAB5E023
:1049C000FE0131968CE001900D928150E1F70E943A
:1049D000D81FAF960FB6F894DEBF0FBECDBFCF91F4
:1049E000DF911F910F91FF90EF90DF90CF90BF90DC
:1049F000AF909F908F907F906F905F904F903F907F
:104A00002F9008951F931BE306C00E9436138091D8
:104A1000BC05882391F490919D0580919E0598177F
:104A200041F080919E05819FC001112489589E4FBD
:104A300061F78091BD05833041F31F910895809106
:104A40009D0580939E0580919D058F5F823109F4BD
:104A500080E080939F058CE1E0EAF5E0DF011D92A4
:104A60008A95E9F708956F927F928F929F92AF9205
:104A7000BF92CF92DF92EF92FF920F931F93CF934B
:104A8000DF934C013B015A01FB018081F401E80FE7
:104A9000F11DEF0189918D3229F481812196CC2479
:104AA000C39405C08B3211F481812196CC2420E07F
:104AB00030E040E050E0DD24E0E070E0682F60533B
:104AC0006A30F8F4EF5FE930C0F47111DA94DA017A
:104AD000C901F2E0880F991FAA1FBB1FFA95D1F7F1
:104AE000280F391F4A1F5B1F220F331F441F551FFA
:104AF000260F311D411D511D09C0772339F4D39470
:104B000005C06E3F29F4772319F471E08991D6CF5F
:104B1000EE2319F420E030E051C0CA01B9010E942F
:104B2000B7307B018C0120E030E040E050E00E9493
:104B30001730882369F42BC0C801B7012AE037ED8C
:104B400043E25CE30E94EC327B018C01F2E0DF0E79
:104B50008FEFD8168CF3D81659F4C801B7012DEC95
:104B60003CEC4CEC5DE30E94EC327B018C010FC00D
:104B7000DD2069F0C801B70120E030E040E251E4F7
:104B80000E94EC327B018C01DA941D149CF3CC2042
:104B900049F0D801C701B058F50180839183A28301
:104BA000B38305C0F501E082F18202831383882D6F
:104BB00080958C0FF301808321E030E0C901DF9103
:104BC000CF911F910F91FF90EF90DF90CF90BF900A
:104BD000AF909F908F907F906F90089520EA3FE074
:104BE00004C0F9013197F1F701970097D1F70895C3
:104BF0001F93A0EABFE040E951E015E335E031C082
:104C00006A3071058105910540F4232F2A95F1F74B
:104C1000615070408040904024C064367105810529
:104C2000910540F4212F2A95F1F76A507040804099
:104C3000904017C0683E23E0720720E0820720E022
:104C4000920740F4FA013197F1F7645670408040C2
:104C5000904007C0FD013197F1F7685E73408040D6
:104C60009040611571058105910551F61F910895D8
:104C7000EF92FF920F931F936091BF057091C00553
:104C80008091C1059091C2052091C3053091C40562
:104C90004091C5055091C605E090C705F090C80544
:104CA0000091C9051091CA050E94D61D6091BF05EB
:104CB0007091C0058091C1059091C2052091C305F6
:104CC0003091C4054091C5055091C605E090C705D7
:104CD000F090C8050091C9051091CA050E948D0881
:104CE0001F910F91FF90EF90089584B1817F84B957
:104CF00085B18E6085B98091E40683FF09C08091FB
:104D00006B008E6080936B0080916800816008C0AA
:104D100080916B00817F80936B00809168008E7F13
:104D20008093680008952F923F924F925F926F9206
:104D30007F928F929F92AF92BF92CF92DF92EF922B
:104D4000FF920F931F93DF93CF93CDB7DEB7A99751
:104D50000FB6F894DEBF0FBECDBF8EA36FA348A7DA
:104D600038014901FE0131968CE0DF011D928A95E0
:104D7000E9F70EA100FD02C010E00FC06091C1066E
:104D80007091C2068091C3069091C4060E94BC3205
:104D900069837A838B839C8311E001FF0FC01F5FBF
:104DA0006091C5067091C6068091C7069091C806AD
:104DB0000E94BC326D837E838F83988702FF0FC071
:104DC0001F5F6091C9067091CA068091CB069091D1
:104DD000CC060E94BC3269877A878B879C8789853D
:104DE0009A85AB85BC852D803E804F8058842816DF
:104DF00039064A065B0610F41C012D0189819A814F
:104E0000AB81BC81281639064A065B0610F41C01EA
:104E10002D01612F70E080E090E00E94B7300E9489
:104E200079335B016C01C201B1010E94B730A60168
:104E300095010E941E307B018C012091DC0630918F
:104E4000DD064091DE065091DF060E94EC3220E044
:104E500030E84BE355E40E941E300E9404300E946B
:104E60008B306AA37BA38CA39DA3C401B301A601CD
:104E700095010E94EC329B01AC01C801B7010E9470
:104E8000EC329B01AC0160EC71EE84E69CE40E9484
:104E90001E300E94BC327B018C01B8EFEB16B4E2ED
:104EA000FB06B1E00B07B0E01B0718F457016801DF
:104EB00007C038EFA32E34E2B32E31E0C32ED12C3D
:104EC0002091E506207E8091D706282729A33FA1BF
:104ED000332319F480EE282729A3D201C101B69506
:104EE000A79597958795662477244301681A790AD0
:104EF0008A0A9B0A8091CE06B601A501481B51097A
:104F0000610971094D8B5E8B6F8B788F6D8E7E8EF4
:104F10008F8E98A2698E7A8E8B8E9C8E198A1A8AB1
:104F20001B8A1C8A60E177E280E090E06D877E87D3
:104F30008F87988B74E089A1872789A733B198A5BB
:104F4000992311F0AEE03A27BEA1B0FF1AC08981C3
:104F50009A81AB81BC81680E791E8A1E9B1E161435
:104F60001704180419046CF431FF02C029A504C009
:104F70002EA12E7F2EA329A16218730884089508FC
:104F800001C029A14EA141FF29C08D819E81AF8121
:104F9000B8854D8D5E8D6F8D78A1480F591F6A1FA2
:104FA0007B1F4D8F5E8F6F8F78A314161506160624
:104FB0001706A4F432FF03C058E0252703C06EA1F2
:104FC0006D7F6EA38D8D9E8DAF8DB8A182199309D3
:104FD000A409B5098D8F9E8FAF8FB8A39EA192FFB4
:104FE00029C089859A85AB85BC85498D5A8D6B8D85
:104FF0007C8D480F591F6A1F7B1F498F5A8F6B8FFB
:105000007C8F1416150616061706C4F433FF03C06A
:1050100050E1252703C06EA16B7F6EA3898D9A8D09
:10502000AB8DBC8D82199309A409B509898F9A8F1C
:10503000AB8FBC8F9EA1992309F46DC08091BE05F2
:1050400084FD69C08BB12C71837E282B2BB96091B4
:10505000CE0670E080E090E00E94F825A9A1ABB9EF
:105060006D897E898F89988D0E94F825EA14FB044A
:105070000C051D0508F062CF2D853E854F855889AA
:105080002A0D3B1D4C1D5D1D2D873E874F87588B7C
:1050900021326EE4360760E0460760E0560708F408
:1050A0004DCF20523E44404050402D873E874F8791
:1050B000588B89899A89AB89BC892AA13BA14CA1CB
:1050C0005DA1820F931FA41FB51F898B9A8BAB8B99
:1050D000BC8B60E077E883E993E029893A894B89C2
:1050E0005C890E94F833C901DA015C016D01AE14DC
:1050F000BF04C006D10610F4570168018091CE06A6
:10510000B601A501481B5109610971094D8B5E8BE0
:105110006F8B788F13CFA9960FB6F894DEBF0FBEB2
:10512000CDBFCF91DF911F910F91FF90EF90DF9056
:10513000CF90BF90AF909F908F907F906F905F9037
:105140004F903F902F900895FF920F931F930E94CE
:1051500069150091EA061091EB062091EC0630915A
:10516000ED0683E061E040E00E9493268091EE0628
:105170009091EF060E94EE2542E0F42EFA94009101
:10518000E6061091E7062091E8063091E90683E0F3
:1051900060E041E00E9493268091EE069091EF0638
:1051A0000E94EE2581E0F816A1F40091E606109128
:1051B000E7062091E8063091E90683E061E040E0EF
:1051C0000E9493268091EE069091EF060E94EE25B4
:1051D000D5CFFF2099F60E9473161F910F91FF9073
:1051E00008951F920F920FB60F9211242F933F93A1
:1051F0004F935F936F937F938F939F93AF93BF93DF
:10520000EF93FF938091BD05863059F08091BE05E4
:1052100085FD07C00E9400048091BE0580648093D4
:10522000BE05FF91EF91BF91AF919F918F917F91BB
:105230006F915F914F913F912F910F900FBE0F9003
:105240001F9018958F929F92AF92BF92CF92DF924C
:10525000EF92FF920F931F93DF93CF93CDB7DEB7FB
:105260002A970FB6F894DEBF0FBECDBF7B018C012D
:1052700020E030E040E050E00E94173088233CF40A
:105280008DE20E94461217FB109517F91095A09019
:10529000F506DA2C0CC0C801B70120E030E048EC7C
:1052A00052E40E94EC327B018C018EEFD80EE1E0DB
:1052B000ED1588F3A0FE0AC0C801B70120E030E078
:1052C00040E251E40E94EC327B018C01C801B7013D
:1052D00020E030E040E05FE30E943E2F0E948630F5
:1052E0006B017C019E012F5F3F4FF901EA0DF11D1B
:1052F0008EE28083BB2449011EC0BA1409F4B39422
:1053000084010B0D111DC701B6012AE030E040E019
:1053100050E00E94F833605DF8016083B394C701E8
:10532000B6012AE030E040E050E00E94F833C901C5
:10533000DA016C017D01C114D104E104F104E9F644
:1053400006C0FC01EB0DF11D2083B39403C0CE0118
:10535000019620E3BA14A8F3BA1489F48B2D8F5F59
:10536000FE01E80FF11D90E39183B82EB39407C0BE
:10537000FE01EB0DF11D80810E944612BA94BB2004
:10538000B9F72A960FB6F894DEBF0FBECDBFCF9106
:10539000DF911F910F91FF90EF90DF90CF90BF9022
:1053A000AF909F908F9008958F929F92BF92CF92CF
:1053B000DF92EF92FF920F931F93DF93CF93CDB7BE
:1053C000DEB72A970FB6F894DEBF0FBECDBF7B01C4
:1053D0008C0197FF0BC08DE20E944612109500953C
:1053E000F094E094E11CF11C011D111D670178018E
:1053F000C114D104E104F10421F480E30E944612B7
:105400002FC0BB244E010894811C911C84010B0DFC
:10541000111DC701B6012AE030E040E050E00E94D3
:10542000F833605DF8016083B394C701B6012AE0E8
:1054300030E040E050E00E94F833C901DA016C012D
:105440007D01C114D104E104F10401F707C0FE019C
:10545000EB0DF11D80810E944612BA94BB20B9F772
:105460002A960FB6F894DEBF0FBECDBFCF91DF9165
:105470001F910F91FF90EF90DF90CF90BF909F9082
:105480008F9008950F931F93DF93CF93CDB7DEB71F
:1054900028970FB6F894DEBF0FBECDBF982FFE0140
:1054A00031969E01275F3F4F892F8170819396959A
:1054B000E217F307C9F78E01085F1F4FF8018081DB
:1054C000805D0E944612015010400C171D07B1F775
:1054D00028960FB6F894DEBF0FBECDBFCF91DF91F7
:1054E0001F910F910895CF93DF93EC0102C00E94AA
:1054F0004612FE01219684918823C9F7DF91CF914E
:105500000895CF93DF93EC0103C021960E944612C9
:1055100088818823D1F7DF91CF9108958AE594E0BF
:105520000E94732A089588E895E00E94732A0895DE
:105530001F93182F82EF95E00E94732A133091F089
:10554000143028F4113041F01230B1F408C0143096
:1055500061F0153089F40CC080EE95E00BC08CEC46
:1055600095E008C08AEB95E005C082EB95E002C0AB
:1055700089EA95E00E94732A85EA95E00E94732AE1
:105580001F9108951F93182F882319F48BE197E03A
:1055900050C083E197E00E94732A173091F11830D0
:1055A00070F4133011F1143028F41130C1F01230BE
:1055B000F1F518C01530F9F0163000F519C01A30A1
:1055C00049F11B3028F41830F9F0193081F51FC06B
:1055D0001C3031F11C3008F11D3049F524C081E048
:1055E00097E023C089EE96E020C083ED96E01DC0D1
:1055F00084EC96E01AC08EEA96E017C08CE996E03B
:1056000014C08BE896E011C08FE796E00EC080E7EB
:1056100096E00BC08FE496E008C080E496E005C0F9
:1056200085E396E002C087E296E00E94732A84E256
:1056300096E00E94732A1F910895AF92BF92CF9275
:10564000DF92EF92FF920F931F93DF93CF93CDB72B
:10565000DEB768970FB6F894DEBF0FBECDBFDE0190
:105660001196EFEBF5E08CE001900D928150E1F79F
:105670008091BD058430C9F0853038F4823079F0EE
:10568000833080F4882341F01DC08630A1F086303D
:1056900078F08730B9F412C08CE191E011C085E157
:1056A00091E00EC080E191E00BC08AE091E008C07B
:1056B00084E091E005C08DEF90E002C086EF90E0BD
:1056C0000E94732A8FEE90E00E94732A8DE0E82EEC
:1056D000F12CEC0EFD1E670100E010E05E01089465
:1056E000A11CB11CF501E00FF11F60817181828165
:1056F00093810E94B930F801EF53F94F2081318135
:10570000428153810E941E309B01AC01F6016083EF
:105710007183828393838091E40680FF0DC0CA0168
:10572000B9012BE832E441E25DE30E94EC32F6017C
:105730006083718382839383F6016191719181917A
:1057400091916F010E9422298DEE90E00E94732AB0
:105750000C5F1F4F0C30110529F687EE90E00E9478
:10576000732A09EE15E0DD248091E40680FF1BC05A
:10577000F801608171818281938124853585468518
:1057800057850E943E2F2BE832E441E25DEB0E94F8
:10579000EC329B01AC01F7016081718182819381C0
:1057A0000E943E2F14C0F801608171818281938133
:1057B00024853585468557850E943E2F9B01AC0187
:1057C000F70160817181828193810E943D2FF701F1
:1057D0006083718382839383F70160817181828109
:1057E00093810E942229F2E0DF1621F085EE90E0FD
:1057F0000E94732AD39484E090E0E80EF91E0C5FB7
:105800001F4F93E0D91609F0AFCF81EE90E00E94D0
:10581000732A68960FB6F894DEBF0FBECDBFCF9146
:10582000DF911F910F91FF90EF90DF90CF90BF908D
:10583000AF9008958091CD05823091F0833028F4A7
:10584000882341F08130B1F408C0833061F08430A6
:1058500089F40CC085E991E00BC081E991E008C0B2
:105860008DE891E005C089E891E002C084E891E00C
:105870000E94732A81E891E00E94732A6091E805F2
:1058800070E06A5C7F4F882777FD8095982F0E9493
:10589000D4298091E505882351F48091E605813073
:1058A00019F48CE791E005C087E791E002C082E738
:1058B00091E00E94732A8091CF05882319F08DE62C
:1058C00091E002C088E691E00E94732A8091D005A1
:1058D000882319F083E691E002C08EE591E00E94F2
:1058E000732A8091CE05882319F089E591E002C0E2
:1058F00084E591E00E94732A8091D105813041F0C6
:10590000813018F0823059F406C080E591E005C07E
:105910008CE491E002C088E491E00E94732A8091B7
:10592000D205882359F0813019F08F3F59F403C014
:1059300084E491E005C080E491E002C08CE391E052
:105940000E94732A8091D305882319F0813041F495
:1059500003C088E391E002C084E391E00E94732ACF
:1059600081E391E00E94732A6091E40570E080E099
:1059700090E00E94D4298EE291E00E94732A8091E7
:10598000CF05882379F06091D4057091D505809179
:10599000D6059091D7052BE832E441E25DE30E9401
:1059A000EC3208C06091D4057091D5058091D60580
:1059B0009091D7050E9422298AE291E00E94732AE1
:1059C0000895CF92DF92EF92FF920F931F93E82EEC
:1059D0006B0187E291E00E94732AFF2400E010E04F
:1059E000C801B7010E94D42985E291E00E94732A80
:1059F000C6010E94812A82E291E00E94732A1F91CF
:105A00000F91FF90EF90DF90CF900895CF92DF92AB
:105A1000EF92FF920F931F93DF93CF93CDB7DEB733
:105A20002C970FB6F894DEBF0FBECDBFFF246E01DA
:105A30000894C11CD11C8F2DB6010E941B1D882308
:105A400021F48AE00E94C22A90C08BEC91E00E946F
:105A5000732A83E0F816E9F08F1530F0E1E0FE16C6
:105A600091F0EF1598F00CC0F5E0FF16C1F0FF16AD
:105A700098F086E0F816B1F0E7E0FE16D1F415C014
:105A800087EC91E014C083EC91E011C08FEB91E0C2
:105A90000EC08BEB91E00BC087EB91E008C083EB6D
:105AA00091E005C08FEA91E002C08BEA91E00E948C
:105AB000732A8601EE248091E40680FF0CC0F80171
:105AC00060817181828193812BE832E441E25DE360
:105AD0000E94EC3205C0F80160817181828193815E
